{
  "_format": "hh-sol-artifact-1",
  "contractName": "NFT",
  "sourceName": "contracts/NFT.sol",
  "abi": [
    {
      "inputs": [],
      "stateMutability": "nonpayable",
      "type": "constructor"
    },
    {
      "anonymous": false,
      "inputs": [
        {
          "indexed": true,
          "internalType": "address",
          "name": "owner",
          "type": "address"
        },
        {
          "indexed": true,
          "internalType": "address",
          "name": "approved",
          "type": "address"
        },
        {
          "indexed": true,
          "internalType": "uint256",
          "name": "tokenId",
          "type": "uint256"
        }
      ],
      "name": "Approval",
      "type": "event"
    },
    {
      "anonymous": false,
      "inputs": [
        {
          "indexed": true,
          "internalType": "address",
          "name": "owner",
          "type": "address"
        },
        {
          "indexed": true,
          "internalType": "address",
          "name": "operator",
          "type": "address"
        },
        {
          "indexed": false,
          "internalType": "bool",
          "name": "approved",
          "type": "bool"
        }
      ],
      "name": "ApprovalForAll",
      "type": "event"
    },
    {
      "anonymous": false,
      "inputs": [
        {
          "indexed": true,
          "internalType": "address",
          "name": "from",
          "type": "address"
        },
        {
          "indexed": true,
          "internalType": "address",
          "name": "to",
          "type": "address"
        },
        {
          "indexed": true,
          "internalType": "uint256",
          "name": "tokenId",
          "type": "uint256"
        }
      ],
      "name": "Transfer",
      "type": "event"
    },
    {
      "inputs": [
        {
          "internalType": "address",
          "name": "to",
          "type": "address"
        },
        {
          "internalType": "uint256",
          "name": "tokenId",
          "type": "uint256"
        }
      ],
      "name": "approve",
      "outputs": [],
      "stateMutability": "nonpayable",
      "type": "function"
    },
    {
      "inputs": [
        {
          "internalType": "address",
          "name": "owner",
          "type": "address"
        }
      ],
      "name": "balanceOf",
      "outputs": [
        {
          "internalType": "uint256",
          "name": "",
          "type": "uint256"
        }
      ],
      "stateMutability": "view",
      "type": "function"
    },
    {
      "inputs": [
        {
          "internalType": "uint256",
          "name": "tokenId",
          "type": "uint256"
        }
      ],
      "name": "getApproved",
      "outputs": [
        {
          "internalType": "address",
          "name": "",
          "type": "address"
        }
      ],
      "stateMutability": "view",
      "type": "function"
    },
    {
      "inputs": [],
      "name": "getNFTs",
      "outputs": [
        {
          "components": [
            {
              "internalType": "string",
              "name": "tokenURI",
              "type": "string"
            },
            {
              "internalType": "uint256",
              "name": "mintDate",
              "type": "uint256"
            },
            {
              "internalType": "uint256",
              "name": "attribute",
              "type": "uint256"
            },
            {
              "internalType": "uint256",
              "name": "id",
              "type": "uint256"
            }
          ],
          "internalType": "struct NFT.NFT[]",
          "name": "",
          "type": "tuple[]"
        }
      ],
      "stateMutability": "view",
      "type": "function"
    },
    {
      "inputs": [
        {
          "internalType": "address",
          "name": "owner",
          "type": "address"
        },
        {
          "internalType": "address",
          "name": "operator",
          "type": "address"
        }
      ],
      "name": "isApprovedForAll",
      "outputs": [
        {
          "internalType": "bool",
          "name": "",
          "type": "bool"
        }
      ],
      "stateMutability": "view",
      "type": "function"
    },
    {
      "inputs": [
        {
          "internalType": "string",
          "name": "_tokenURI",
          "type": "string"
        }
      ],
      "name": "mint",
      "outputs": [],
      "stateMutability": "nonpayable",
      "type": "function"
    },
    {
      "inputs": [],
      "name": "name",
      "outputs": [
        {
          "internalType": "string",
          "name": "",
          "type": "string"
        }
      ],
      "stateMutability": "view",
      "type": "function"
    },
    {
      "inputs": [
        {
          "internalType": "uint256",
          "name": "",
          "type": "uint256"
        }
      ],
      "name": "nfts",
      "outputs": [
        {
          "internalType": "string",
          "name": "tokenURI",
          "type": "string"
        },
        {
          "internalType": "uint256",
          "name": "mintDate",
          "type": "uint256"
        },
        {
          "internalType": "uint256",
          "name": "attribute",
          "type": "uint256"
        },
        {
          "internalType": "uint256",
          "name": "id",
          "type": "uint256"
        }
      ],
      "stateMutability": "view",
      "type": "function"
    },
    {
      "inputs": [
        {
          "internalType": "uint256",
          "name": "tokenId",
          "type": "uint256"
        }
      ],
      "name": "ownerOf",
      "outputs": [
        {
          "internalType": "address",
          "name": "",
          "type": "address"
        }
      ],
      "stateMutability": "view",
      "type": "function"
    },
    {
      "inputs": [
        {
          "internalType": "address",
          "name": "from",
          "type": "address"
        },
        {
          "internalType": "address",
          "name": "to",
          "type": "address"
        },
        {
          "internalType": "uint256",
          "name": "tokenId",
          "type": "uint256"
        }
      ],
      "name": "safeTransferFrom",
      "outputs": [],
      "stateMutability": "nonpayable",
      "type": "function"
    },
    {
      "inputs": [
        {
          "internalType": "address",
          "name": "from",
          "type": "address"
        },
        {
          "internalType": "address",
          "name": "to",
          "type": "address"
        },
        {
          "internalType": "uint256",
          "name": "tokenId",
          "type": "uint256"
        },
        {
          "internalType": "bytes",
          "name": "_data",
          "type": "bytes"
        }
      ],
      "name": "safeTransferFrom",
      "outputs": [],
      "stateMutability": "nonpayable",
      "type": "function"
    },
    {
      "inputs": [
        {
          "internalType": "address",
          "name": "operator",
          "type": "address"
        },
        {
          "internalType": "bool",
          "name": "approved",
          "type": "bool"
        }
      ],
      "name": "setApprovalForAll",
      "outputs": [],
      "stateMutability": "nonpayable",
      "type": "function"
    },
    {
      "inputs": [
        {
          "internalType": "bytes4",
          "name": "interfaceId",
          "type": "bytes4"
        }
      ],
      "name": "supportsInterface",
      "outputs": [
        {
          "internalType": "bool",
          "name": "",
          "type": "bool"
        }
      ],
      "stateMutability": "view",
      "type": "function"
    },
    {
      "inputs": [],
      "name": "symbol",
      "outputs": [
        {
          "internalType": "string",
          "name": "",
          "type": "string"
        }
      ],
      "stateMutability": "view",
      "type": "function"
    },
    {
      "inputs": [
        {
          "internalType": "uint256",
          "name": "tokenId",
          "type": "uint256"
        }
      ],
      "name": "tokenURI",
      "outputs": [
        {
          "internalType": "string",
          "name": "",
          "type": "string"
        }
      ],
      "stateMutability": "view",
      "type": "function"
    },
    {
      "inputs": [
        {
          "internalType": "address",
          "name": "from",
          "type": "address"
        },
        {
          "internalType": "address",
          "name": "to",
          "type": "address"
        },
        {
          "internalType": "uint256",
          "name": "tokenId",
          "type": "uint256"
        }
      ],
      "name": "transferFrom",
      "outputs": [],
      "stateMutability": "nonpayable",
      "type": "function"
    }
  ],
  "bytecode": "0x60806040523480156200001157600080fd5b506040518060400160405280600881526020017f4e4654204e616d650000000000000000000000000000000000000000000000008152506040518060400160405280600a81526020017f4e46542053594d424f4c00000000000000000000000000000000000000000000815250816000908051906020019062000096929190620000b8565b508060019080519060200190620000af929190620000b8565b505050620001cd565b828054620000c69062000168565b90600052602060002090601f016020900481019282620000ea576000855562000136565b82601f106200010557805160ff191683800117855562000136565b8280016001018555821562000136579182015b828111156200013557825182559160200191906001019062000118565b5b50905062000145919062000149565b5090565b5b80821115620001645760008160009055506001016200014a565b5090565b600060028204905060018216806200018157607f821691505b602082108114156200019857620001976200019e565b5b50919050565b7f4e487b7100000000000000000000000000000000000000000000000000000000600052602260045260246000fd5b61300680620001dd6000396000f3fe608060405234801561001057600080fd5b50600436106101005760003560e01c80636352211e11610097578063b88d4fde11610066578063b88d4fde146102c2578063c87b56dd146102de578063d85d3d271461030e578063e985e9c51461032a57610100565b80636352211e1461022857806370a082311461025857806395d89b4114610288578063a22cb465146102a657610100565b8063227212f2116100d3578063227212f21461019f57806323b872dd146101bd578063265aa621146101d957806342842e0e1461020c57610100565b806301ffc9a71461010557806306fdde0314610135578063081812fc14610153578063095ea7b314610183575b600080fd5b61011f600480360381019061011a9190611e86565b61035a565b60405161012c9190612423565b60405180910390f35b61013d61043c565b60405161014a919061243e565b60405180910390f35b61016d60048036038101906101689190611f19565b6104ce565b60405161017a919061239a565b60405180910390f35b61019d60048036038101906101989190611e4a565b610553565b005b6101a761066b565b6040516101b49190612401565b60405180910390f35b6101d760048036038101906101d29190611d44565b61077a565b005b6101f360048036038101906101ee9190611f19565b6107da565b6040516102039493929190612460565b60405180910390f35b61022660048036038101906102219190611d44565b6108a2565b005b610242600480360381019061023d9190611f19565b6108c2565b60405161024f919061239a565b60405180910390f35b610272600480360381019061026d9190611cdf565b610974565b60405161027f91906126ac565b60405180910390f35b610290610a2c565b60405161029d919061243e565b60405180910390f35b6102c060048036038101906102bb9190611e0e565b610abe565b005b6102dc60048036038101906102d79190611d93565b610ad4565b005b6102f860048036038101906102f39190611f19565b610b36565b604051610305919061243e565b60405180910390f35b61032860048036038101906103239190611ed8565b610c88565b005b610344600480360381019061033f9190611d08565b610d4d565b6040516103519190612423565b60405180910390f35b60007f80ac58cd000000000000000000000000000000000000000000000000000000007bffffffffffffffffffffffffffffffffffffffffffffffffffffffff1916827bffffffffffffffffffffffffffffffffffffffffffffffffffffffff1916148061042557507f5b5e139f000000000000000000000000000000000000000000000000000000007bffffffffffffffffffffffffffffffffffffffffffffffffffffffff1916827bffffffffffffffffffffffffffffffffffffffffffffffffffffffff1916145b80610435575061043482610de1565b5b9050919050565b60606000805461044b9061294c565b80601f01602080910402602001604051908101604052809291908181526020018280546104779061294c565b80156104c45780601f10610499576101008083540402835291602001916104c4565b820191906000526020600020905b8154815290600101906020018083116104a757829003601f168201915b5050505050905090565b60006104d982610e4b565b610518576040517f08c379a000000000000000000000000000000000000000000000000000000000815260040161050f9061262c565b60405180910390fd5b6004600083815260200190815260200160002060009054906101000a900473ffffffffffffffffffffffffffffffffffffffff169050919050565b600061055e826108c2565b90508073ffffffffffffffffffffffffffffffffffffffff168373ffffffffffffffffffffffffffffffffffffffff1614156105cf576040517f08c379a00000000000000000000000000000000000000000000000000000000081526004016105c69061266c565b60405180910390fd5b8073ffffffffffffffffffffffffffffffffffffffff166105ee610eb7565b73ffffffffffffffffffffffffffffffffffffffff16148061061d575061061c81610617610eb7565b610d4d565b5b61065c576040517f08c379a00000000000000000000000000000000000000000000000000000000081526004016106539061256c565b60405180910390fd5b6106668383610ebf565b505050565b60606008805480602002602001604051908101604052809291908181526020016000905b8282101561077157838290600052602060002090600402016040518060800160405290816000820180546106c29061294c565b80601f01602080910402602001604051908101604052809291908181526020018280546106ee9061294c565b801561073b5780601f106107105761010080835404028352916020019161073b565b820191906000526020600020905b81548152906001019060200180831161071e57829003601f168201915b5050505050815260200160018201548152602001600282015481526020016003820154815250508152602001906001019061068f565b50505050905090565b61078b610785610eb7565b82610f78565b6107ca576040517f08c379a00000000000000000000000000000000000000000000000000000000081526004016107c19061268c565b60405180910390fd5b6107d5838383611056565b505050565b600881815481106107ea57600080fd5b906000526020600020906004020160009150905080600001805461080d9061294c565b80601f01602080910402602001604051908101604052809291908181526020018280546108399061294c565b80156108865780601f1061085b57610100808354040283529160200191610886565b820191906000526020600020905b81548152906001019060200180831161086957829003601f168201915b5050505050908060010154908060020154908060030154905084565b6108bd83838360405180602001604052806000815250610ad4565b505050565b6000806002600084815260200190815260200160002060009054906101000a900473ffffffffffffffffffffffffffffffffffffffff169050600073ffffffffffffffffffffffffffffffffffffffff168173ffffffffffffffffffffffffffffffffffffffff16141561096b576040517f08c379a0000000000000000000000000000000000000000000000000000000008152600401610962906125ac565b60405180910390fd5b80915050919050565b60008073ffffffffffffffffffffffffffffffffffffffff168273ffffffffffffffffffffffffffffffffffffffff1614156109e5576040517f08c379a00000000000000000000000000000000000000000000000000000000081526004016109dc9061258c565b60405180910390fd5b600360008373ffffffffffffffffffffffffffffffffffffffff1673ffffffffffffffffffffffffffffffffffffffff168152602001908152602001600020549050919050565b606060018054610a3b9061294c565b80601f0160208091040260200160405190810160405280929190818152602001828054610a679061294c565b8015610ab45780601f10610a8957610100808354040283529160200191610ab4565b820191906000526020600020905b815481529060010190602001808311610a9757829003601f168201915b5050505050905090565b610ad0610ac9610eb7565b83836112bd565b5050565b610ae5610adf610eb7565b83610f78565b610b24576040517f08c379a0000000000000000000000000000000000000000000000000000000008152600401610b1b9061268c565b60405180910390fd5b610b308484848461142a565b50505050565b6060610b4182610e4b565b610b80576040517f08c379a0000000000000000000000000000000000000000000000000000000008152600401610b779061260c565b60405180910390fd5b6000600660008481526020019081526020016000208054610ba09061294c565b80601f0160208091040260200160405190810160405280929190818152602001828054610bcc9061294c565b8015610c195780601f10610bee57610100808354040283529160200191610c19565b820191906000526020600020905b815481529060010190602001808311610bfc57829003601f168201915b505050505090506000610c2a611486565b9050600081511415610c40578192505050610c83565b600082511115610c75578082604051602001610c5d929190612376565b60405160208183030381529060405292505050610c83565b610c7e8461149d565b925050505b919050565b6000604051806080016040528083815260200142815260200160008152602001600754815250905060088190806001815401808255809150506001900390600052602060002090600402016000909190919091506000820151816000019080519060200190610cf8929190611b03565b506020820151816001015560408201518160020155606082015181600301555050610d2533600754611544565b610d316007548361171e565b60076000815480929190610d44906129af565b91905055505050565b6000600560008473ffffffffffffffffffffffffffffffffffffffff1673ffffffffffffffffffffffffffffffffffffffff16815260200190815260200160002060008373ffffffffffffffffffffffffffffffffffffffff1673ffffffffffffffffffffffffffffffffffffffff16815260200190815260200160002060009054906101000a900460ff16905092915050565b60007f01ffc9a7000000000000000000000000000000000000000000000000000000007bffffffffffffffffffffffffffffffffffffffffffffffffffffffff1916827bffffffffffffffffffffffffffffffffffffffffffffffffffffffff1916149050919050565b60008073ffffffffffffffffffffffffffffffffffffffff166002600084815260200190815260200160002060009054906101000a900473ffffffffffffffffffffffffffffffffffffffff1673ffffffffffffffffffffffffffffffffffffffff1614159050919050565b600033905090565b816004600083815260200190815260200160002060006101000a81548173ffffffffffffffffffffffffffffffffffffffff021916908373ffffffffffffffffffffffffffffffffffffffff160217905550808273ffffffffffffffffffffffffffffffffffffffff16610f32836108c2565b73ffffffffffffffffffffffffffffffffffffffff167f8c5be1e5ebec7d5bd14f71427d1e84f3dd0314c0f7b2291e5b200ac8c7c3b92560405160405180910390a45050565b6000610f8382610e4b565b610fc2576040517f08c379a0000000000000000000000000000000000000000000000000000000008152600401610fb99061254c565b60405180910390fd5b6000610fcd836108c2565b90508073ffffffffffffffffffffffffffffffffffffffff168473ffffffffffffffffffffffffffffffffffffffff16148061103c57508373ffffffffffffffffffffffffffffffffffffffff16611024846104ce565b73ffffffffffffffffffffffffffffffffffffffff16145b8061104d575061104c8185610d4d565b5b91505092915050565b8273ffffffffffffffffffffffffffffffffffffffff16611076826108c2565b73ffffffffffffffffffffffffffffffffffffffff16146110cc576040517f08c379a00000000000000000000000000000000000000000000000000000000081526004016110c3906124cc565b60405180910390fd5b600073ffffffffffffffffffffffffffffffffffffffff168273ffffffffffffffffffffffffffffffffffffffff16141561113c576040517f08c379a00000000000000000000000000000000000000000000000000000000081526004016111339061250c565b60405180910390fd5b611147838383611792565b611152600082610ebf565b6001600360008573ffffffffffffffffffffffffffffffffffffffff1673ffffffffffffffffffffffffffffffffffffffff16815260200190815260200160002060008282546111a29190612862565b925050819055506001600360008473ffffffffffffffffffffffffffffffffffffffff1673ffffffffffffffffffffffffffffffffffffffff16815260200190815260200160002060008282546111f991906127db565b92505081905550816002600083815260200190815260200160002060006101000a81548173ffffffffffffffffffffffffffffffffffffffff021916908373ffffffffffffffffffffffffffffffffffffffff160217905550808273ffffffffffffffffffffffffffffffffffffffff168473ffffffffffffffffffffffffffffffffffffffff167fddf252ad1be2c89b69c2b068fc378daa952ba7f163c4a11628f55a4df523b3ef60405160405180910390a46112b8838383611797565b505050565b8173ffffffffffffffffffffffffffffffffffffffff168373ffffffffffffffffffffffffffffffffffffffff16141561132c576040517f08c379a00000000000000000000000000000000000000000000000000000000081526004016113239061252c565b60405180910390fd5b80600560008573ffffffffffffffffffffffffffffffffffffffff1673ffffffffffffffffffffffffffffffffffffffff16815260200190815260200160002060008473ffffffffffffffffffffffffffffffffffffffff1673ffffffffffffffffffffffffffffffffffffffff16815260200190815260200160002060006101000a81548160ff0219169083151502179055508173ffffffffffffffffffffffffffffffffffffffff168373ffffffffffffffffffffffffffffffffffffffff167f17307eab39ab6107e8899845ad3d59bd9653f200f220920489ca2b5937696c318360405161141d9190612423565b60405180910390a3505050565b611435848484611056565b6114418484848461179c565b611480576040517f08c379a0000000000000000000000000000000000000000000000000000000008152600401611477906124ac565b60405180910390fd5b50505050565b606060405180602001604052806000815250905090565b60606114a882610e4b565b6114e7576040517f08c379a00000000000000000000000000000000000000000000000000000000081526004016114de9061264c565b60405180910390fd5b60006114f1611486565b90506000815111611511576040518060200160405280600081525061153c565b8061151b84611933565b60405160200161152c929190612376565b6040516020818303038152906040525b915050919050565b600073ffffffffffffffffffffffffffffffffffffffff168273ffffffffffffffffffffffffffffffffffffffff1614156115b4576040517f08c379a00000000000000000000000000000000000000000000000000000000081526004016115ab906125ec565b60405180910390fd5b6115bd81610e4b565b156115fd576040517f08c379a00000000000000000000000000000000000000000000000000000000081526004016115f4906124ec565b60405180910390fd5b61160960008383611792565b6001600360008473ffffffffffffffffffffffffffffffffffffffff1673ffffffffffffffffffffffffffffffffffffffff168152602001908152602001600020600082825461165991906127db565b92505081905550816002600083815260200190815260200160002060006101000a81548173ffffffffffffffffffffffffffffffffffffffff021916908373ffffffffffffffffffffffffffffffffffffffff160217905550808273ffffffffffffffffffffffffffffffffffffffff16600073ffffffffffffffffffffffffffffffffffffffff167fddf252ad1be2c89b69c2b068fc378daa952ba7f163c4a11628f55a4df523b3ef60405160405180910390a461171a60008383611797565b5050565b61172782610e4b565b611766576040517f08c379a000000000000000000000000000000000000000000000000000000000815260040161175d906125cc565b60405180910390fd5b8060066000848152602001908152602001600020908051906020019061178d929190611b03565b505050565b505050565b505050565b60006117bd8473ffffffffffffffffffffffffffffffffffffffff16611ae0565b15611926578373ffffffffffffffffffffffffffffffffffffffff1663150b7a026117e6610eb7565b8786866040518563ffffffff1660e01b815260040161180894939291906123b5565b602060405180830381600087803b15801561182257600080fd5b505af192505050801561185357506040513d601f19601f820116820180604052508101906118509190611eaf565b60015b6118d6573d8060008114611883576040519150601f19603f3d011682016040523d82523d6000602084013e611888565b606091505b506000815114156118ce576040517f08c379a00000000000000000000000000000000000000000000000000000000081526004016118c5906124ac565b60405180910390fd5b805181602001fd5b63150b7a0260e01b7bffffffffffffffffffffffffffffffffffffffffffffffffffffffff1916817bffffffffffffffffffffffffffffffffffffffffffffffffffffffff19161491505061192b565b600190505b949350505050565b6060600082141561197b576040518060400160405280600181526020017f30000000000000000000000000000000000000000000000000000000000000008152509050611adb565b600082905060005b600082146119ad578080611996906129af565b915050600a826119a69190612831565b9150611983565b60008167ffffffffffffffff8111156119ef577f4e487b7100000000000000000000000000000000000000000000000000000000600052604160045260246000fd5b6040519080825280601f01601f191660200182016040528015611a215781602001600182028036833780820191505090505b5090505b60008514611ad457600182611a3a9190612862565b9150600a85611a4991906129f8565b6030611a5591906127db565b60f81b818381518110611a91577f4e487b7100000000000000000000000000000000000000000000000000000000600052603260045260246000fd5b60200101907effffffffffffffffffffffffffffffffffffffffffffffffffffffffffffff1916908160001a905350600a85611acd9190612831565b9450611a25565b8093505050505b919050565b6000808273ffffffffffffffffffffffffffffffffffffffff163b119050919050565b828054611b0f9061294c565b90600052602060002090601f016020900481019282611b315760008555611b78565b82601f10611b4a57805160ff1916838001178555611b78565b82800160010185558215611b78579182015b82811115611b77578251825591602001919060010190611b5c565b5b509050611b859190611b89565b5090565b5b80821115611ba2576000816000905550600101611b8a565b5090565b6000611bb9611bb4846126ec565b6126c7565b905082815260208101848484011115611bd157600080fd5b611bdc84828561290a565b509392505050565b6000611bf7611bf28461271d565b6126c7565b905082815260208101848484011115611c0f57600080fd5b611c1a84828561290a565b509392505050565b600081359050611c3181612f74565b92915050565b600081359050611c4681612f8b565b92915050565b600081359050611c5b81612fa2565b92915050565b600081519050611c7081612fa2565b92915050565b600082601f830112611c8757600080fd5b8135611c97848260208601611ba6565b91505092915050565b600082601f830112611cb157600080fd5b8135611cc1848260208601611be4565b91505092915050565b600081359050611cd981612fb9565b92915050565b600060208284031215611cf157600080fd5b6000611cff84828501611c22565b91505092915050565b60008060408385031215611d1b57600080fd5b6000611d2985828601611c22565b9250506020611d3a85828601611c22565b9150509250929050565b600080600060608486031215611d5957600080fd5b6000611d6786828701611c22565b9350506020611d7886828701611c22565b9250506040611d8986828701611cca565b9150509250925092565b60008060008060808587031215611da957600080fd5b6000611db787828801611c22565b9450506020611dc887828801611c22565b9350506040611dd987828801611cca565b925050606085013567ffffffffffffffff811115611df657600080fd5b611e0287828801611c76565b91505092959194509250565b60008060408385031215611e2157600080fd5b6000611e2f85828601611c22565b9250506020611e4085828601611c37565b9150509250929050565b60008060408385031215611e5d57600080fd5b6000611e6b85828601611c22565b9250506020611e7c85828601611cca565b9150509250929050565b600060208284031215611e9857600080fd5b6000611ea684828501611c4c565b91505092915050565b600060208284031215611ec157600080fd5b6000611ecf84828501611c61565b91505092915050565b600060208284031215611eea57600080fd5b600082013567ffffffffffffffff811115611f0457600080fd5b611f1084828501611ca0565b91505092915050565b600060208284031215611f2b57600080fd5b6000611f3984828501611cca565b91505092915050565b6000611f4e83836122f5565b905092915050565b611f5f81612896565b82525050565b6000611f708261275e565b611f7a818561278c565b935083602082028501611f8c8561274e565b8060005b85811015611fc85784840389528151611fa98582611f42565b9450611fb48361277f565b925060208a01995050600181019050611f90565b50829750879550505050505092915050565b611fe3816128a8565b82525050565b6000611ff482612769565b611ffe818561279d565b935061200e818560208601612919565b61201781612ae5565b840191505092915050565b600061202d82612774565b61203781856127ae565b9350612047818560208601612919565b61205081612ae5565b840191505092915050565b600061206682612774565b61207081856127bf565b9350612080818560208601612919565b61208981612ae5565b840191505092915050565b600061209f82612774565b6120a981856127d0565b93506120b9818560208601612919565b80840191505092915050565b60006120d26032836127bf565b91506120dd82612af6565b604082019050919050565b60006120f56025836127bf565b915061210082612b45565b604082019050919050565b6000612118601c836127bf565b915061212382612b94565b602082019050919050565b600061213b6024836127bf565b915061214682612bbd565b604082019050919050565b600061215e6019836127bf565b915061216982612c0c565b602082019050919050565b6000612181602c836127bf565b915061218c82612c35565b604082019050919050565b60006121a46038836127bf565b91506121af82612c84565b604082019050919050565b60006121c7602a836127bf565b91506121d282612cd3565b604082019050919050565b60006121ea6029836127bf565b91506121f582612d22565b604082019050919050565b600061220d602e836127bf565b915061221882612d71565b604082019050919050565b60006122306020836127bf565b915061223b82612dc0565b602082019050919050565b60006122536031836127bf565b915061225e82612de9565b604082019050919050565b6000612276602c836127bf565b915061228182612e38565b604082019050919050565b6000612299602f836127bf565b91506122a482612e87565b604082019050919050565b60006122bc6021836127bf565b91506122c782612ed6565b604082019050919050565b60006122df6031836127bf565b91506122ea82612f25565b604082019050919050565b600060808301600083015184820360008601526123128282612022565b91505060208301516123276020860182612358565b50604083015161233a6040860182612358565b50606083015161234d6060860182612358565b508091505092915050565b61236181612900565b82525050565b61237081612900565b82525050565b60006123828285612094565b915061238e8284612094565b91508190509392505050565b60006020820190506123af6000830184611f56565b92915050565b60006080820190506123ca6000830187611f56565b6123d76020830186611f56565b6123e46040830185612367565b81810360608301526123f68184611fe9565b905095945050505050565b6000602082019050818103600083015261241b8184611f65565b905092915050565b60006020820190506124386000830184611fda565b92915050565b60006020820190508181036000830152612458818461205b565b905092915050565b6000608082019050818103600083015261247a818761205b565b90506124896020830186612367565b6124966040830185612367565b6124a36060830184612367565b95945050505050565b600060208201905081810360008301526124c5816120c5565b9050919050565b600060208201905081810360008301526124e5816120e8565b9050919050565b600060208201905081810360008301526125058161210b565b9050919050565b600060208201905081810360008301526125258161212e565b9050919050565b6000602082019050818103600083015261254581612151565b9050919050565b6000602082019050818103600083015261256581612174565b9050919050565b6000602082019050818103600083015261258581612197565b9050919050565b600060208201905081810360008301526125a5816121ba565b9050919050565b600060208201905081810360008301526125c5816121dd565b9050919050565b600060208201905081810360008301526125e581612200565b9050919050565b6000602082019050818103600083015261260581612223565b9050919050565b6000602082019050818103600083015261262581612246565b9050919050565b6000602082019050818103600083015261264581612269565b9050919050565b600060208201905081810360008301526126658161228c565b9050919050565b60006020820190508181036000830152612685816122af565b9050919050565b600060208201905081810360008301526126a5816122d2565b9050919050565b60006020820190506126c16000830184612367565b92915050565b60006126d16126e2565b90506126dd828261297e565b919050565b6000604051905090565b600067ffffffffffffffff82111561270757612706612ab6565b5b61271082612ae5565b9050602081019050919050565b600067ffffffffffffffff82111561273857612737612ab6565b5b61274182612ae5565b9050602081019050919050565b6000819050602082019050919050565b600081519050919050565b600081519050919050565b600081519050919050565b6000602082019050919050565b600082825260208201905092915050565b600082825260208201905092915050565b600082825260208201905092915050565b600082825260208201905092915050565b600081905092915050565b60006127e682612900565b91506127f183612900565b9250827fffffffffffffffffffffffffffffffffffffffffffffffffffffffffffffffff0382111561282657612825612a29565b5b828201905092915050565b600061283c82612900565b915061284783612900565b92508261285757612856612a58565b5b828204905092915050565b600061286d82612900565b915061287883612900565b92508282101561288b5761288a612a29565b5b828203905092915050565b60006128a1826128e0565b9050919050565b60008115159050919050565b60007fffffffff0000000000000000000000000000000000000000000000000000000082169050919050565b600073ffffffffffffffffffffffffffffffffffffffff82169050919050565b6000819050919050565b82818337600083830152505050565b60005b8381101561293757808201518184015260208101905061291c565b83811115612946576000848401525b50505050565b6000600282049050600182168061296457607f821691505b6020821081141561297857612977612a87565b5b50919050565b61298782612ae5565b810181811067ffffffffffffffff821117156129a6576129a5612ab6565b5b80604052505050565b60006129ba82612900565b91507fffffffffffffffffffffffffffffffffffffffffffffffffffffffffffffffff8214156129ed576129ec612a29565b5b600182019050919050565b6000612a0382612900565b9150612a0e83612900565b925082612a1e57612a1d612a58565b5b828206905092915050565b7f4e487b7100000000000000000000000000000000000000000000000000000000600052601160045260246000fd5b7f4e487b7100000000000000000000000000000000000000000000000000000000600052601260045260246000fd5b7f4e487b7100000000000000000000000000000000000000000000000000000000600052602260045260246000fd5b7f4e487b7100000000000000000000000000000000000000000000000000000000600052604160045260246000fd5b6000601f19601f8301169050919050565b7f4552433732313a207472616e7366657220746f206e6f6e20455243373231526560008201527f63656976657220696d706c656d656e7465720000000000000000000000000000602082015250565b7f4552433732313a207472616e736665722066726f6d20696e636f72726563742060008201527f6f776e6572000000000000000000000000000000000000000000000000000000602082015250565b7f4552433732313a20746f6b656e20616c7265616479206d696e74656400000000600082015250565b7f4552433732313a207472616e7366657220746f20746865207a65726f2061646460008201527f7265737300000000000000000000000000000000000000000000000000000000602082015250565b7f4552433732313a20617070726f766520746f2063616c6c657200000000000000600082015250565b7f4552433732313a206f70657261746f7220717565727920666f72206e6f6e657860008201527f697374656e7420746f6b656e0000000000000000000000000000000000000000602082015250565b7f4552433732313a20617070726f76652063616c6c6572206973206e6f74206f7760008201527f6e6572206e6f7220617070726f76656420666f7220616c6c0000000000000000602082015250565b7f4552433732313a2062616c616e636520717565727920666f7220746865207a6560008201527f726f206164647265737300000000000000000000000000000000000000000000602082015250565b7f4552433732313a206f776e657220717565727920666f72206e6f6e657869737460008201527f656e7420746f6b656e0000000000000000000000000000000000000000000000602082015250565b7f45524337323155524953746f726167653a2055524920736574206f66206e6f6e60008201527f6578697374656e7420746f6b656e000000000000000000000000000000000000602082015250565b7f4552433732313a206d696e7420746f20746865207a65726f2061646472657373600082015250565b7f45524337323155524953746f726167653a2055524920717565727920666f722060008201527f6e6f6e6578697374656e7420746f6b656e000000000000000000000000000000602082015250565b7f4552433732313a20617070726f76656420717565727920666f72206e6f6e657860008201527f697374656e7420746f6b656e0000000000000000000000000000000000000000602082015250565b7f4552433732314d657461646174613a2055524920717565727920666f72206e6f60008201527f6e6578697374656e7420746f6b656e0000000000000000000000000000000000602082015250565b7f4552433732313a20617070726f76616c20746f2063757272656e74206f776e6560008201527f7200000000000000000000000000000000000000000000000000000000000000602082015250565b7f4552433732313a207472616e736665722063616c6c6572206973206e6f74206f60008201527f776e6572206e6f7220617070726f766564000000000000000000000000000000602082015250565b612f7d81612896565b8114612f8857600080fd5b50565b612f94816128a8565b8114612f9f57600080fd5b50565b612fab816128b4565b8114612fb657600080fd5b50565b612fc281612900565b8114612fcd57600080fd5b5056fea2646970667358221220ca0cbe8e027078b50f037031cd9b673a8b6bf85007f4c636454a363438da1f9864736f6c63430008040033",
  "linkReferences": {},
  "deployedLinkReferences": {}
}