{
  "_format": "hh-sol-artifact-1",
  "contractName": "SocialMediaApp",
  "sourceName": "src/contracts/SocialMediaApp.sol",
  "abi": [
    {
      "inputs": [
        {
          "internalType": "string",
          "name": "_name",
          "type": "string"
        }
      ],
      "stateMutability": "nonpayable",
      "type": "constructor"
    },
    {
      "anonymous": false,
      "inputs": [
        {
          "indexed": false,
          "internalType": "uint256",
          "name": "commentId",
          "type": "uint256"
        },
        {
          "indexed": false,
          "internalType": "uint256",
          "name": "relatedPostId",
          "type": "uint256"
        },
        {
          "indexed": false,
          "internalType": "string",
          "name": "comment",
          "type": "string"
        },
        {
          "indexed": false,
          "internalType": "string",
          "name": "commentDate",
          "type": "string"
        },
        {
          "indexed": false,
          "internalType": "address",
          "name": "commentedUser",
          "type": "address"
        }
      ],
      "name": "UploadComment",
      "type": "event"
    },
    {
      "anonymous": false,
      "inputs": [
        {
          "indexed": false,
          "internalType": "uint256",
          "name": "postId",
          "type": "uint256"
        },
        {
          "indexed": false,
          "internalType": "string",
          "name": "postImage",
          "type": "string"
        },
        {
          "indexed": false,
          "internalType": "string",
          "name": "caption",
          "type": "string"
        },
        {
          "indexed": false,
          "internalType": "string",
          "name": "tags",
          "type": "string"
        },
        {
          "indexed": false,
          "internalType": "string",
          "name": "date",
          "type": "string"
        },
        {
          "indexed": false,
          "internalType": "address",
          "name": "user",
          "type": "address"
        }
      ],
      "name": "UploadPost",
      "type": "event"
    },
    {
      "inputs": [],
      "name": "getComments",
      "outputs": [
        {
          "components": [
            {
              "internalType": "uint256",
              "name": "commentId",
              "type": "uint256"
            },
            {
              "internalType": "uint256",
              "name": "relatedPostId",
              "type": "uint256"
            },
            {
              "internalType": "string",
              "name": "comment",
              "type": "string"
            },
            {
              "internalType": "string",
              "name": "commentDate",
              "type": "string"
            },
            {
              "internalType": "address",
              "name": "commentedUser",
              "type": "address"
            }
          ],
          "internalType": "struct SocialMediaApp.Comment[]",
          "name": "",
          "type": "tuple[]"
        }
      ],
      "stateMutability": "view",
      "type": "function"
    },
    {
      "inputs": [
        {
          "internalType": "uint256",
          "name": "id",
          "type": "uint256"
        }
      ],
      "name": "getPost",
      "outputs": [
        {
          "components": [
            {
              "internalType": "uint256",
              "name": "postId",
              "type": "uint256"
            },
            {
              "internalType": "string",
              "name": "postImage",
              "type": "string"
            },
            {
              "internalType": "string",
              "name": "caption",
              "type": "string"
            },
            {
              "internalType": "string",
              "name": "tags",
              "type": "string"
            },
            {
              "internalType": "string",
              "name": "date",
              "type": "string"
            },
            {
              "internalType": "address",
              "name": "user",
              "type": "address"
            }
          ],
          "internalType": "struct SocialMediaApp.Post",
          "name": "",
          "type": "tuple"
        }
      ],
      "stateMutability": "view",
      "type": "function"
    },
    {
      "inputs": [],
      "name": "getPosts",
      "outputs": [
        {
          "components": [
            {
              "internalType": "uint256",
              "name": "postId",
              "type": "uint256"
            },
            {
              "internalType": "string",
              "name": "postImage",
              "type": "string"
            },
            {
              "internalType": "string",
              "name": "caption",
              "type": "string"
            },
            {
              "internalType": "string",
              "name": "tags",
              "type": "string"
            },
            {
              "internalType": "string",
              "name": "date",
              "type": "string"
            },
            {
              "internalType": "address",
              "name": "user",
              "type": "address"
            }
          ],
          "internalType": "struct SocialMediaApp.Post[]",
          "name": "",
          "type": "tuple[]"
        }
      ],
      "stateMutability": "view",
      "type": "function"
    },
    {
      "inputs": [
        {
          "internalType": "uint256",
          "name": "postId",
          "type": "uint256"
        },
        {
          "internalType": "string",
          "name": "postComment",
          "type": "string"
        },
        {
          "internalType": "string",
          "name": "date",
          "type": "string"
        }
      ],
      "name": "uploadComment",
      "outputs": [],
      "stateMutability": "nonpayable",
      "type": "function"
    },
    {
      "inputs": [
        {
          "internalType": "string",
          "name": "postImage",
          "type": "string"
        },
        {
          "internalType": "string",
          "name": "caption",
          "type": "string"
        },
        {
          "internalType": "string",
          "name": "tags",
          "type": "string"
        },
        {
          "internalType": "string",
          "name": "postDate",
          "type": "string"
        }
      ],
      "name": "uploadPost",
      "outputs": [],
      "stateMutability": "nonpayable",
      "type": "function"
    }
  ],
  "bytecode": "0x60806040523480156200001157600080fd5b50604051620017533803806200175383398101604081905262000034916200016f565b620000806040518060400160405280601681526020017f53636f6369616c204d6564696120417070204e616d650000000000000000000081525082620000a860201b62000bf31760201c565b60006200008e8282620002b6565b5050600180546001600160a01b03191633179055620003e2565b620000f58282604051602401620000c1929190620003b0565b60408051601f198184030181529190526020810180516001600160e01b03908116634b5c427760e01b17909152620000f916565b5050565b6200010f816200011260201b62000c3c1760201c565b50565b60006a636f6e736f6c652e6c6f679050600080835160208501845afa505050565b634e487b7160e01b600052604160045260246000fd5b60005b83811015620001665781810151838201526020016200014c565b50506000910152565b6000602082840312156200018257600080fd5b81516001600160401b03808211156200019a57600080fd5b818401915084601f830112620001af57600080fd5b815181811115620001c457620001c462000133565b604051601f8201601f19908116603f01168101908382118183101715620001ef57620001ef62000133565b816040528281528760208487010111156200020957600080fd5b6200021c83602083016020880162000149565b979650505050505050565b600181811c908216806200023c57607f821691505b6020821081036200025d57634e487b7160e01b600052602260045260246000fd5b50919050565b601f821115620002b157600081815260208120601f850160051c810160208610156200028c5750805b601f850160051c820191505b81811015620002ad5782815560010162000298565b5050505b505050565b81516001600160401b03811115620002d257620002d262000133565b620002ea81620002e3845462000227565b8462000263565b602080601f831160018114620003225760008415620003095750858301515b600019600386901b1c1916600185901b178555620002ad565b600085815260208120601f198616915b82811015620003535788860151825594840194600190910190840162000332565b5085821015620003725787850151600019600388901b60f8161c191681555b5050505050600190811b01905550565b600081518084526200039c81602086016020860162000149565b601f01601f19169290920160200192915050565b604081526000620003c5604083018562000382565b8281036020840152620003d9818562000382565b95945050505050565b61136180620003f26000396000f3fe608060405234801561001057600080fd5b50600436106100575760003560e01c806340731c241461005c57806341f3004a146100855780634ac8e7fd1461009a57806391f3410c146100af578063e96d2fb0146100c4575b600080fd5b61006f61006a366004610cb2565b6100d7565b60405161007c9190610d9c565b60405180910390f35b61008d61036a565b60405161007c9190610db6565b6100ad6100a8366004610ebb565b6106af565b005b6100b7610850565b60405161007c9190610f68565b6100ad6100d2366004611018565b610aa7565b6100df610c73565b600460008381526020019081526020016000206040518060c00160405290816000820154815260200160018201805461011790611085565b80601f016020809104026020016040519081016040528092919081815260200182805461014390611085565b80156101905780601f1061016557610100808354040283529160200191610190565b820191906000526020600020905b81548152906001019060200180831161017357829003601f168201915b505050505081526020016002820180546101a990611085565b80601f01602080910402602001604051908101604052809291908181526020018280546101d590611085565b80156102225780601f106101f757610100808354040283529160200191610222565b820191906000526020600020905b81548152906001019060200180831161020557829003601f168201915b5050505050815260200160038201805461023b90611085565b80601f016020809104026020016040519081016040528092919081815260200182805461026790611085565b80156102b45780601f10610289576101008083540402835291602001916102b4565b820191906000526020600020905b81548152906001019060200180831161029757829003601f168201915b505050505081526020016004820180546102cd90611085565b80601f01602080910402602001604051908101604052809291908181526020018280546102f990611085565b80156103465780601f1061031b57610100808354040283529160200191610346565b820191906000526020600020905b81548152906001019060200180831161032957829003601f168201915b5050509183525050600591909101546001600160a01b031660209091015292915050565b6060600061037760025490565b905060008167ffffffffffffffff81111561039457610394610e18565b6040519080825280602002602001820160405280156103cd57816020015b6103ba610c73565b8152602001906001900390816103b25790505b50905060005b828110156106a85760006103e88260016110d5565b90506000600460008381526020019081526020016000209050806040518060c00160405290816000820154815260200160018201805461042790611085565b80601f016020809104026020016040519081016040528092919081815260200182805461045390611085565b80156104a05780601f10610475576101008083540402835291602001916104a0565b820191906000526020600020905b81548152906001019060200180831161048357829003601f168201915b505050505081526020016002820180546104b990611085565b80601f01602080910402602001604051908101604052809291908181526020018280546104e590611085565b80156105325780601f1061050757610100808354040283529160200191610532565b820191906000526020600020905b81548152906001019060200180831161051557829003601f168201915b5050505050815260200160038201805461054b90611085565b80601f016020809104026020016040519081016040528092919081815260200182805461057790611085565b80156105c45780601f10610599576101008083540402835291602001916105c4565b820191906000526020600020905b8154815290600101906020018083116105a757829003601f168201915b505050505081526020016004820180546105dd90611085565b80601f016020809104026020016040519081016040528092919081815260200182805461060990611085565b80156106565780601f1061062b57610100808354040283529160200191610656565b820191906000526020600020905b81548152906001019060200180831161063957829003601f168201915b5050509183525050600591909101546001600160a01b03166020909101528451859085908110610688576106886110ee565b6020026020010181905250505080806106a090611104565b9150506103d3565b5092915050565b60008451116106fa5760405162461bcd60e51b8152602060048201526012602482015271141b19585cd94814d95b1958dd08141bdcdd60721b60448201526064015b60405180910390fd5b60008351116107435760405162461bcd60e51b8152602060048201526015602482015274506c6561736520456e7465722043617074696f6e2160581b60448201526064016106f1565b60008251116107875760405162461bcd60e51b815260206004820152601060248201526f506c6561736520456e7465722054616760801b60448201526064016106f1565b610795600280546001019055565b60006107a060025490565b6000818152600460205260409020818155909150600181016107c2878261116c565b50600281016107d1868261116c565b50600381016107e0858261116c565b50600481016107ef848261116c565b506005810180546001600160a01b031916339081179091556040517fe83d5f9afb8e1c19d7c72681e5e92f701f5b6f64822b01d077379012fe4a8482916108409185918a918a918a918a919061122c565b60405180910390a1505050505050565b6060600061085d60035490565b905060008167ffffffffffffffff81111561087a5761087a610e18565b6040519080825280602002602001820160405280156108e657816020015b6108d36040518060a001604052806000815260200160008152602001606081526020016060815260200160006001600160a01b031681525090565b8152602001906001900390816108985790505b50905060005b828110156106a85760006109018260016110d5565b90506000600560008381526020019081526020016000209050806040518060a0016040529081600082015481526020016001820154815260200160028201805461094a90611085565b80601f016020809104026020016040519081016040528092919081815260200182805461097690611085565b80156109c35780601f10610998576101008083540402835291602001916109c3565b820191906000526020600020905b8154815290600101906020018083116109a657829003601f168201915b505050505081526020016003820180546109dc90611085565b80601f0160208091040260200160405190810160405280929190818152602001828054610a0890611085565b8015610a555780601f10610a2a57610100808354040283529160200191610a55565b820191906000526020600020905b815481529060010190602001808311610a3857829003601f168201915b5050509183525050600491909101546001600160a01b03166020909101528451859085908110610a8757610a876110ee565b602002602001018190525050508080610a9f90611104565b9150506108ec565b6000610ab260025490565b118015610abe57508215155b610aff5760405162461bcd60e51b8152602060048201526012602482015271506f7374204e6f7420417661696c61626c6560701b60448201526064016106f1565b6000825111610b455760405162461bcd60e51b8152602060048201526012602482015271141b19585cd9481059190810dbdb5b595b9d60721b60448201526064016106f1565b610b53600380546001019055565b6000610b5e60035490565b60008181526005602052604090208181556001810186905590915060028101610b87858261116c565b5060038101610b96848261116c565b506004810180546001600160a01b031916339081179091556040517f4f86e3ca7c283ca86241c8c7b0423203bf538aa29729c1e89e7dc060ae64a57c91610be491859189918991899161129b565b60405180910390a15050505050565b610c388282604051602401610c099291906112e7565b60408051601f198184030181529190526020810180516001600160e01b0316634b5c427760e01b179052610c5d565b5050565b60006a636f6e736f6c652e6c6f679050600080835160208501845afa505050565b610c6681610c3c565b50565b610c71611315565b565b6040518060c00160405280600081526020016060815260200160608152602001606081526020016060815260200160006001600160a01b031681525090565b600060208284031215610cc457600080fd5b5035919050565b6000815180845260005b81811015610cf157602081850181015186830182015201610cd5565b506000602082860101526020601f19601f83011685010191505092915050565b805182526000602082015160c06020850152610d3060c0850182610ccb565b905060408301518482036040860152610d498282610ccb565b91505060608301518482036060860152610d638282610ccb565b91505060808301518482036080860152610d7d8282610ccb565b60a0948501516001600160a01b03169590940194909452509092915050565b602081526000610daf6020830184610d11565b9392505050565b6000602080830181845280855180835260408601915060408160051b870101925083870160005b82811015610e0b57603f19888603018452610df9858351610d11565b94509285019290850190600101610ddd565b5092979650505050505050565b634e487b7160e01b600052604160045260246000fd5b600082601f830112610e3f57600080fd5b813567ffffffffffffffff80821115610e5a57610e5a610e18565b604051601f8301601f19908116603f01168101908282118183101715610e8257610e82610e18565b81604052838152866020858801011115610e9b57600080fd5b836020870160208301376000602085830101528094505050505092915050565b60008060008060808587031215610ed157600080fd5b843567ffffffffffffffff80821115610ee957600080fd5b610ef588838901610e2e565b95506020870135915080821115610f0b57600080fd5b610f1788838901610e2e565b94506040870135915080821115610f2d57600080fd5b610f3988838901610e2e565b93506060870135915080821115610f4f57600080fd5b50610f5c87828801610e2e565b91505092959194509250565b60006020808301818452808551808352604092508286019150828160051b87010184880160005b8381101561100a57603f19898403018552815160a0815185528882015189860152878201518189870152610fc582870182610ccb565b91505060608083015186830382880152610fdf8382610ccb565b6080948501516001600160a01b03169790940196909652505094870194925090860190600101610f8f565b509098975050505050505050565b60008060006060848603121561102d57600080fd5b83359250602084013567ffffffffffffffff8082111561104c57600080fd5b61105887838801610e2e565b9350604086013591508082111561106e57600080fd5b5061107b86828701610e2e565b9150509250925092565b600181811c9082168061109957607f821691505b6020821081036110b957634e487b7160e01b600052602260045260246000fd5b50919050565b634e487b7160e01b600052601160045260246000fd5b808201808211156110e8576110e86110bf565b92915050565b634e487b7160e01b600052603260045260246000fd5b600060018201611116576111166110bf565b5060010190565b601f82111561116757600081815260208120601f850160051c810160208610156111445750805b601f850160051c820191505b8181101561116357828155600101611150565b5050505b505050565b815167ffffffffffffffff81111561118657611186610e18565b61119a816111948454611085565b8461111d565b602080601f8311600181146111cf57600084156111b75750858301515b600019600386901b1c1916600185901b178555611163565b600085815260208120601f198616915b828110156111fe578886015182559484019460019091019084016111df565b508582101561121c5787850151600019600388901b60f8161c191681555b5050505050600190811b01905550565b86815260c06020820152600061124560c0830188610ccb565b82810360408401526112578188610ccb565b9050828103606084015261126b8187610ccb565b9050828103608084015261127f8186610ccb565b91505060018060a01b03831660a0830152979650505050505050565b85815284602082015260a0604082015260006112ba60a0830186610ccb565b82810360608401526112cc8186610ccb565b91505060018060a01b03831660808301529695505050505050565b6040815260006112fa6040830185610ccb565b828103602084015261130c8185610ccb565b95945050505050565b634e487b7160e01b600052605160045260246000fdfea26469706673582212205466e4fc1d0b7c77fbecf0bbd6041911cbf40b2814c40a15893eb4ee2ef4dabd64736f6c63430008110033",
  "linkReferences": {},
  "deployedLinkReferences": {}
}